{
  "_format": "hh-sol-artifact-1",
  "contractName": "TokenPurchaseContract",
  "sourceName": "contracts/PurchaseTokens.sol",
  "abi": [
    {
      "inputs": [
        {
          "internalType": "address",
          "name": "_tokenAddress",
          "type": "address"
        },
        {
          "internalType": "uint256",
          "name": "_priceInWei",
          "type": "uint256"
        }
      ],
      "stateMutability": "nonpayable",
      "type": "constructor"
    },
    {
      "anonymous": false,
      "inputs": [
        {
          "indexed": true,
          "internalType": "address",
          "name": "buyer",
          "type": "address"
        },
        {
          "indexed": false,
          "internalType": "uint256",
          "name": "amount",
          "type": "uint256"
        },
        {
          "indexed": false,
          "internalType": "uint256",
          "name": "cost",
          "type": "uint256"
        }
      ],
      "name": "TokensPurchased",
      "type": "event"
    },
    {
      "inputs": [],
      "name": "owner",
      "outputs": [
        {
          "internalType": "address",
          "name": "",
          "type": "address"
        }
      ],
      "stateMutability": "view",
      "type": "function"
    },
    {
      "inputs": [
        {
          "internalType": "uint256",
          "name": "numberOfTokens",
          "type": "uint256"
        }
      ],
      "name": "purchaseTokens",
      "outputs": [],
      "stateMutability": "payable",
      "type": "function"
    },
    {
      "inputs": [],
      "name": "token",
      "outputs": [
        {
          "internalType": "contract ShahidToken",
          "name": "",
          "type": "address"
        }
      ],
      "stateMutability": "view",
      "type": "function"
    },
    {
      "inputs": [],
      "name": "tokenPrice",
      "outputs": [
        {
          "internalType": "uint256",
          "name": "",
          "type": "uint256"
        }
      ],
      "stateMutability": "view",
      "type": "function"
    },
    {
      "inputs": [],
      "name": "withdraw",
      "outputs": [],
      "stateMutability": "nonpayable",
      "type": "function"
    }
  ],
  "bytecode": "0x608060405234801561001057600080fd5b5060405161053738038061053783398101604081905261002f91610061565b600080546001600160a01b039093166001600160a01b031993841617905560018054909216331790915560025561009b565b6000806040838503121561007457600080fd5b82516001600160a01b038116811461008b57600080fd5b6020939093015192949293505050565b61048d806100aa6000396000f3fe60806040526004361061004a5760003560e01c80633ccfd60b1461004f5780637b97008d146100665780637ff9b596146100795780638da5cb5b146100a2578063fc0c546a146100da575b600080fd5b34801561005b57600080fd5b506100646100fa565b005b6100646100743660046103b6565b61019f565b34801561008557600080fd5b5061008f60025481565b6040519081526020015b60405180910390f35b3480156100ae57600080fd5b506001546100c2906001600160a01b031681565b6040516001600160a01b039091168152602001610099565b3480156100e657600080fd5b506000546100c2906001600160a01b031681565b6001546001600160a01b031633146101635760405162461bcd60e51b815260206004820152602160248201527f596f75206d75737420626520746865206f776e657220746f20776974686472616044820152607760f81b60648201526084015b60405180910390fd5b6001546040516001600160a01b03909116904780156108fc02916000818181858888f1935050505015801561019c573d6000803e3d6000fd5b50565b6000600254826101af91906103e5565b9050803410156102015760405162461bcd60e51b815260206004820152601760248201527f496e73756666696369656e742045746865722073656e74000000000000000000604482015260640161015a565b600080546040516370a0823160e01b81523060048201526001600160a01b03909116906370a0823190602401602060405180830381865afa15801561024a573d6000803e3d6000fd5b505050506040513d601f19601f8201168201806040525081019061026e9190610402565b9050828110156102c05760405162461bcd60e51b815260206004820152601b60248201527f4e6f7420656e6f75676820746f6b656e7320617661696c61626c650000000000604482015260640161015a565b60005460405163a9059cbb60e01b8152336004820152602481018590526001600160a01b039091169063a9059cbb906044016020604051808303816000875af1158015610311573d6000803e3d6000fd5b505050506040513d601f19601f82011682018060405250810190610335919061041b565b50604080518481526020810184905233917f8fafebcaf9d154343dad25669bfa277f4fbacd7ac6b0c4fed522580e040a0f33910160405180910390a2813411156103b157336108fc6103878434610444565b6040518115909202916000818181858888f193505050501580156103af573d6000803e3d6000fd5b505b505050565b6000602082840312156103c857600080fd5b5035919050565b634e487b7160e01b600052601160045260246000fd5b80820281158282048414176103fc576103fc6103cf565b92915050565b60006020828403121561041457600080fd5b5051919050565b60006020828403121561042d57600080fd5b8151801515811461043d57600080fd5b9392505050565b818103818111156103fc576103fc6103cf56fea2646970667358221220e3a8d507969bce8e9a0e78d9eb91a1f25a7a35acb23ff83ad1bd5fb8cf0f8d6a64736f6c63430008140033",
  "linkReferences": {},
  "deployedLinkReferences": {}
}